:1000000000900020458D020073940200739402005A
:1000100073940200739402007394020073940200BC
:10002000739402007394020073940200BD9E020058
:10003000739402007394020061130200756502005C
:10004000739402007394020073940200739402008C
:10005000739402007394020073940200739402007C
:10006000739402007394020073940200739402006C
:10007000739402007394020073940200739402005C
:0C00800073940200739402007394020059
:10009000F0B591B00791044606463036011D0125A2
:1000A000069250040D9408910995019607D408888A
:1000B00089780904401800260496039669E125F022
:1000C0009BFF039029F04DFA3078304C4821605462
:1000D0002A4625464835014611408207D20F51185D
:1000E0004007C00F0F1820341421204627F063FC6E
:1000F000277500266675A675E6750D9C244825496A
:100100000160254825490860254FB88D1F49C881E1
:1001100025F021F8B8862148868010200F901B49D1
:100120000F464871EE70AE80608825F0EBFA032828
:100130003DD124F08DFC388100267E61A06B10300B
:1001400026F00EF826F018FC7881A16B088B134F6F
:10015000F883488B3884888B78842420085C800757
:10016000C00F388388680327002867D0827B121865
:10017000D37B0F221A40072A14D8C0467A4412793A
:10018000520097442B190F0F0F0F32396065002072
:1001900040140840D6BE898E005555553C20094074
:1001A0000620094049200026F34A165422E0014661
:1001B0000496089D0746DDE008462430CA8BEF4BC5
:1001C0001A860A8C5A86498C9986007809990840C3
:1001D00098834920E84A115405260BE049200999E3
:1001E000E54A11540326374604E049200999E24ABA
:1001F00011540226089D23E000266E700999E970CB
:10020000817B0918497C890617D000210E460FF022
:1002100063F93520D84A105C0028089D10D060880A
:10022000032738401146213189780904490D884255
:1002300006D04C200999115402E08427089DCE4A2B
:100240000E964B26905D00280BD0104600233832C6
:100250008363C363137253819381A06B08300121C0
:1002600004E0A06B08300221002213460EF09EFE2F
:10027000002100282DD00C96109102220E9E3146AE
:100280000B9211404A424A41431E581E8341134378
:100290000493012B21D1D64806800022B74E7281EB
:1002A000A36B2525585D03240440F482585D400863
:1002B00004263040CF4C2085585DC006C00F6085B5
:1002C00000290A960CD10020C94988810D9CAA4EAC
:1002D0001BE0832704910E464CE08327A64E33E0B3
:1002E000586825331B78D90707D1C3495A073340CB
:1002F000D41721405A00204001E0C049491C0D9C00
:100300009D4EBB4B29F068FBB9490E98C00703D13D
:1003100000200882089D17E0A26B1068525D9307C9
:100320000AD4B54D0A9B13405207D1170D405A000D
:100330002B460840AE4902E0B04A531C0022089DFB
:100340000B82A23123F033F80C98305C002810D0D7
:10035000A06B083025F098FE002801D1842171712E
:100360000B990172B16B884201D10020B0630F9EDE
:1003700000E0109E2888A978090440183902FF225D
:1003800012029043401828800F2F01D902210E43FA
:10039000099DFF210902014003200E9000028142C5
:1003A00061D1A8040590964B29020846B030079AFF
:1003B000024202915BD0104608400B90069D2846F1
:1003C00018400A906C4F8F48C06A04285BD310967F
:1003D00000200C9023F054FE80B2441D21460E985C
:1003E000814378690F9120F031FD06467869864295
:1003F00004D008201099014310917E61002E3AD05C
:10040000A108F0893518103528461DF0D5FD0B9848
:100410000028594F16D04B20385C002812D068684D
:100420000F21090401400E98000481420AD1284698
:1004300024F0D4FBC00602D535200C9939544D2048
:1004400009993954F0893118FA79CA740F9940180A
:10045000F0810420109E06430D9CA06B103025F007
:100460007FFE0A9DAFE7B00700D5D1E2D6E2109635
:10047000069E354611E085203F4F78716248099904
:1004800001600D9C109E1096B879002804D0E06B96
:100490005E49C96821F06EFA069E05980640680616
:1004A0002946C50F0F4608460299084003D0324935
:1004B0004A2201238B54B30C10990D430799C907A5
:1004C00012D0059939400FD14A490988042920D111
:1004D0002A48406D28498A69801A60634020487123
:1004E000032000BF00BF4FE00798000401D4049927
:1004F00057E021484079102803D13E48008822F077
:1005000071FF28F0B1FC424A28F02CFB0023194669
:1005100047E0BA0529D41093CB1F5A425A41164CD2
:100520004A23E35C5E1EB341002829D11A4327D138
:10053000022903D13520205C002825D10120049018
:100540004820205C002800D198E12E480521016058
:10055000A07900280D9C04D0E06B2C49C96821F0DB
:1005600009FA24F05FFA0023C1E7032018F0FAFE2D
:100570000149487108E0C046606500203C20094000
:10058000022018F0EFFE60712248407928F06CFCE0
:100590001F4A28F0E7FA032000BF00BF00231946D6
:1005A0000D9CF803109307D5A06B10300E4625F074
:1005B000D7FD3146124807402646313600295CD027
:1005C0000F95144A48200C901056002828D47578AE
:1005D000052D00D9002507210840801E052829D8AF
:1005E0007844007940008744191723211D27C0460D
:1005F00096200940062009400A8000000A80FFFF7B
:10060000FFFFFEFFA0110840301008403C6A0020A8
:10061000FF00FF0060650020E8070BD026250DE0F5
:1006200005460BE001200540263507E0E80701D02C
:10063000272503E0252501E06D0825352020105CE5
:10064000918922F0FBFB0A90E8B20B901BF0A8FA0C
:10065000002803D029F0CCF9002827D0089A28F0E8
:1006600011FFF04908404121490201431180000C6B
:10067000907002200F9D05430D9C1098002800D11A
:10068000BCE1FD482127C15D3F20084010901BF0D0
:1006900087FA002803D029F0ABF900281CD0089A6B
:1006A00028F0F0FEF34927F088FDA7E109988003C0
:1006B000079001212046069106F034FD23F098FCB6
:1006C000079807422DD1B078002800D19CE0EB4874
:1006D00027F088FB04464BE02046099906F022FDEE
:1006E00023F086FC0D98806B81680020002953D090
:1006F0000B910C900F954C26DF4CA55D2020205CC3
:10070000A18922F09BFB0146002D57D00298411889
:10071000E0310A91DA48008D24F0F4FF0020A05562
:100720004DE00D9803991DF0C5FC04460F2838D8FC
:100730004B20D14A105C00280AD03520105C0028DC
:1007400006D00C9828F038FD002801D17D20C44344
:100750000D98C06BCA4FF9681EF022FAC64A907114
:100760004A2000211154387F800701D027F058FF1C
:10077000089FE0B21028069B14D2C249002088834B
:100780006CB20B99402901D240202843BA4ABE4F8F
:10079000002C57D4054657E00A900D9CB64A0646F1
:1007A00003E1089F3888B978090440182102B14A4A
:1007B000104001433980000CB8705AE70A910F9D30
:1007C0000B98817B0A18D17B0F263140072913D162
:1007D000547C002529460EF07FFEA009022800D196
:1007E000C6E02B46012800D1ACE000280F9DA24EA8
:1007F00000D0D3E04920D4E0089A28F043FE9D4978
:1008000027F0DBFC9C4ACFE04B209B49085C00288A
:10081000089F67D03520085C002863D00A9828F02C
:1008200070FE601A80009721C9004018703027F0D0
:10083000D9FA04460C98904A28F0BEFC002898D1BA
:100840008224AFE77F200540E8B27886107900283F
:1008500004D028068D4941408D4801604920105C34
:1008600000283AD0154625F029F8AA79B88D89498B
:10087000002A0F9D3AD0803108463AE03520205CAE
:10088000002800D180E62120205C264621367178A0
:1008900009020818B178090440187F4901408029ED
:1008A00000D071E67D480721016024F0BBF84C20A0
:1008B000215C0020002900D10AE2B1780904490D29
:1008C0000D9C6288042313400B436D490B85012165
:1008D000C9030D430146109B63E6D803401C0F9DDE
:1008E0001F4607E028F00FFB044642E78007800E12
:1008F0004840069F28F0B6F9FC48C78328F0E2F884
:10090000022000BF00BFFC4805210160002C14D468
:100910000B9825388740F24A0C99505CB8435054E4
:10092000B17800290D9C00D1A7E6002800D0A4E6EC
:10093000019800780C9950549FE60020E8490C9AE1
:10094000885499E63520E64E305C00280F9D00D192
:100950004BE149203354089A28F094FDE8490840B7
:10096000B90201431180000C90700220054319E088
:100970003520DB4B185C002800D14BE149200021D9
:100980001954089A28F07EFDDD490840B90228F084
:100990000DFC0F9D05430D9C1A4605E0492033547C
:1009A000352033540D9C32460C9EA06B08303832F3
:1009B000012133460EF0FAFA074633463246002F3D
:1009C0000CD0781E414241410E4207D10992411E8E
:1009D0008841012219465140014325D12846089BF0
:1009E00019889A7812048918C54A11408322120284
:1009F0000A431A80090C997002250543A80701D4FF
:100A00002E460BE0E06BBD49C96820F0B3FF2E46CF
:100A100024F008F827F06EFD26F0D0FD304611B026
:100A2000F0BDC046FF00FF0007930B920C960F9598
:100A30009720C5000A984019703028F062FD601AAE
:100A400084004D20A64E305C002829D04836F0792D
:100A5000A3498989069122F0F1F90A900C200699A0
:100A600022F0ECF961190A9A89180C1800207071AB
:100A70009B4E16E0FF00FF00606500208813000019
:100A80003C6A00209620094006200940D6BE898E87
:100A9000401408403181000080FF1F00A011084071
:100AA0000834204627F09EF90A903520305C002853
:100AB00012D02020305CB18922F0C0F94821715C4D
:100AC00032464832127910F09DF900280D9904D170
:100AD0007D20C0430A9000E00D99099A8348028066
:100AE0007D4804254581896B25240A5D0E9B1A40AB
:100AF0007A4BC282085D400828401885085DC00610
:100B0000C00F58855020305C002802D0588D2843F3
:100B100058850C980028079B0CD0486825310A7826
:100B2000D1070CD1724953072A40DB1719401840EE
:100B3000520007E000206D4988810B9A07E06D495B
:100B4000491C0022694B28F047FF0B9A079B002B9A
:100B50000DD00D98816B08680A5D91070ED4644929
:100B600015405207D217114010406A0009E00020DA
:100B70005E4908820D9C0F9D10990CE05D49491C4F
:100B800000220F9D594B19821946A23122F00FFC09
:100B90000D9C10990B9A0A9BD8B2102808D3089A7A
:100BA00028F070FC1902564B184028F0FFFA24E791
:100BB00000254E48858340314848418630790028D9
:100BC00004D0080648494140464801604920305C4D
:100BD000002857D024F072FEB2794048808D4949F0
:100BE000002A52D08031084652E049200121315478
:100BF0000B980068002868D00D9CA06B08300F4649
:100C00003246383202211E460EF0D0F93A460746E7
:100C1000099BD4E64920012119540B980468002C43
:100C20000F9D52D0A07B0019C17B314007290CD108
:100C3000407C3F2809D80B99887B0818007C0B3032
:100C4000FC21014020460EF047FC0D98806B0830D7
:100C5000234A3832022726460024394623460EF01E
:100C6000A5F93A4623460746B07B3018007C1C495C
:100C7000483188710B9CA07B20180D9C007CC871AA
:100C8000099E9CE6D003401C02E08007800E48408D
:100C900027F0E8FF27F016FF14480B99C183164888
:100CA00005210160A06B083025F0EEF9002801D184
:100CB0008421717102210172B16B884200D1B56348
:100CC0007F1EEFD110200F9D97E628460D9C86E6EB
:100CD000049B014664E4C0463C20094006200940CC
:100CE0006065002040140840D6BE898E96200940D9
:100CF0000A8000000A80FFFF301008403C6A002094
:100D0000FF00FF0031810000F0B597B00F460646A6
:100D10004C1C0D782846214626F0CEFC002806D033
:100D200028463146224628F0C8FF17B0F0BD12947D
:100D30000F972320C000301810902A2D34461395A9
:100D400000D95AE2DD20400020180D906720800075
:100D500020180C905720800020181190FF22104678
:100D6000063020180E902346F03320468C300B902E
:100D700020468A300A90264677362546763527461D
:100D8000673713984000C046784480884000874405
:100D90004B0185011901EB0134023402F8011C01F9
:100DA0009D01B2012502FB01CB00340234023F0158
:100DB00034020501C400E70139003900FE013402A4
:100DC000A00034023402340230003402340234020F
:100DD0003402340234022A002A002A003402340287
:100DE00034023402300020461299139A28F09FFFF3
:100DF0009BE7139A82480079800700D5C9E01098D4
:100E0000427205E309941398142803D178790028D5
:100E100000D16AE10F9B5878997809020918D878AF
:100E20001A791202161858799A7912021218D8797A
:100E30001B7A1B021818139B152B00D0E1E189B215
:100E40001B2312931B290F4600D8129F2923DD0074
:100E50001B292B4600D33346FB24FB2F00D3274608
:100E6000684EFB29314600D8194689B2CB08292B98
:100E7000129B00D33B46A9420E4600D82E46614F36
:100E8000B942214600D819465E4B9E4200D35D4EC2
:100E900097B21B2F3A4600D8129A1B2F2B4600D32D
:100EA0000346FB2A00D32246FB2F564C204600D88F
:100EB000184683B2D80829280D9F00D31292AB425E
:100EC000184600D82846A34200D811E2FB2220464B
:100ED0000FE20C9B32460D9D0F984178807881423D
:100EE000264609D107200840129C207000D124E337
:100EF000491E014200D16EE318211E2430462246CD
:100F00001FF060FCB17900222046134619F056F814
:100F1000A87840210143A97007E70E980078C00621
:100F200000D58BE1122071E23D4609940E9F387C7A
:100F3000012817D00F98811C4078109A10708D20CE
:100F400040003E46099F38180224224626F005FD3F
:100F500001464720800038183746224626F0FDFC1F
:100F6000012030746879002800D1BEE0B87C0028E8
:100F700000D0DAE63C46787C002800D0D5E60C218B
:100F8000099806F06FFB002800D148E20120A07408
:100F9000CBE6204612991CF01CF9C6E6119F0F986B
:100FA00041788278204628F02BFC2878012800D050
:100FB00046E1307801460F39022900D338E201209A
:100FC0007873B2E61298007890E0119F1E460C9D4F
:100FD0000E9B0D9A129800780E38082800D9A4E6C6
:100FE0004000C04678448088400087440E00CA0212
:100FF0000D000D00C6020D00D2020D00D802C04641
:10100000B66C0020904200008FE6032030758CE61D
:1010100012950E9D1396A07928F00DFE002800D1A0
:1010200012E10F213A225FE113960F98811C40785C
:101030000B9D2870A81CFD4E02270F903A46B04722
:101040000146281D12903A46B0470146A81D0E9051
:101050003A46B0470146284608300D903A46B04718
:1010600001462878002827462C460A9D14D0129A5B
:101070001288531E9BB2082B00D3082383420BD344
:101080000F9B1B88934207D8062A05D32E46254678
:10109000EC4CA24200D240E3302027E0119D2046D4
:1010A00062300522129926F058FC01460B9F384603
:1010B0000C30022226F051FCB8892189401A80B2F6
:1010C000E149884200D8C5E028200FE02046129967
:1010D0001FF00CFB7879002807D0092120461EF06C
:1010E0009FFC012800D020E699E13D20109908726C
:1010F0000120C87119E61546119A0994187D012836
:1011000000D012E61E46099F3846129914461FF079
:10111000EDFA02203075B9790E357A1900201CF0ED
:10112000E5F922460E984078000702D4C748D086D9
:101130005086C7484078800600D4F6E5908E1B287C
:101140000BD1108E1B2808D12920C000D18E8142DE
:1011500003D1518E814200D1E7E51421099849E07D
:10116000002011990872E0E50E980078C00778D148
:101170001A205873187B0D2101283AD1F4222046F9
:10118000ADE001209873D0E50120D873CDE50C9D2A
:101190000D9A0E9840780921084200D135E10F9B45
:1011A0005878997801400720084058701746D17840
:1011B0000140517000D1B3E1481E084200D1F4E172
:1011C000032900D905E22B460220020600D13DE2A8
:1011D000084200D03DE2C0B24008F6E70B98807BA1
:1011E00001287FD100203870787118800120187391
:1011F0000B2120461AF0CEFD97E510981399417205
:1012000006E18BB21B2B0D9F14D3FB2B12D8B3B26C
:10121000DC08292C0ED38F4CA3420BD893B21B2B86
:1012200008D3FB2B06D82923DD0083B2AB4201D3C0
:10123000A3425ED914211E22099856E01321E8E04A
:10124000002026F0ADF970E52878800700D503E18D
:101250000F20DBE00121B9720020E08329702046D5
:10126000B3E1002038707871254620469C301390F9
:101270000120089318742046B430714C0826129946
:101280003246A04701462846BC300222A04701460C
:101290002C46A4342F46AC3738463246684B984724
:1012A00012903846314625F037FB2E46A0360427EB
:1012B000304612993A46624B98473046394625F0F7
:1012C0002BFB204628F0A0F8139828F098F80898EF
:1012D000007B0421012800D0DBE1F422284617F02E
:1012E0004DF822E514211E2220461FF06BFA1CE562
:1012F000129A119B5987DE871A87988780B25A8E77
:10130000824200D302463878A9231B019A42144630
:1013100000D81C46042800D014460C9FFD88FC8091
:1013200004280DD109981DF015F80246B888131A43
:10133000581E8341BA80119E718F0D9800780CE081
:10134000119AD28EB3B29A4200D31A460C9FBB8830
:10135000D31A5E1EB341BA80119E651B6C1EA54157
:10136000B78E89B28F4200D30F461D430C9C218853
:101370007E1A711E8E4127800D99097901231293DF
:101380001FF074FE874201D2208805E00D9908788D
:101390000979A28828F0C7FC11993543E0820B8EA9
:1013A000088F834200D303466088191A4A1E914170
:1013B0000C9A0D4353808342099E03D9107D8021EE
:1013C00001431175002D11D011980386D5884586EB
:1013D0001188818614469288C2861398142800D0FA
:1013E000A0E0B07900951EF069FE03E01398142880
:1013F00000D09CE01521304606F034F9002800D0DA
:1014000093E4E948007812990CE01620109948728C
:101410000721204606F026F9002800D085E4E2489E
:1014200000780121890312F01FFB7EE45B79020042
:10143000162800D079E40D9DA87801216AE5C04600
:101440005B790200810C0000FE7F0000480800006C
:10145000B66C0020904200002F4609940F9B5878EC
:1014600006909E78D8781979090208180D90587955
:101470009979090208180C90D879197A0902081884
:101480000890587A0790987A0590DC7A187B597BF7
:101490000902091814A80180997BDA7B12025118FD
:1014A0004180197C5A7C120251188180997CDA7C27
:1014B00012025118C180197D5A7D12025118018102
:1014C000997DDA7D120251184181052027F079FFBC
:1014D000002800D19CE030020699461820020599A8
:1014E0004218099C208914A9069292B2089B9FB2C7
:1014F0000097019007980290039204910596B1B26B
:101500000D9882B20C9886B220460F92334614F0A2
:1015100042FF002800D1C1E00D991E262F4679E038
:10152000387897E0217D08200843224600E0107DAE
:10153000202101431175FFF7F8FB107816282F467C
:101540001A4607D1B17914463A780020134618F0AC
:1015500035FD2246022090763878107601247C7181
:101560001188139139791546928823461FF07EFD24
:10157000139981421BD228881EE000203872FFF7A1
:10158000D4FB012038731878FD2101401970FFF752
:10159000CCFB287D122101432975FFF7C6FB90780B
:1015A000122101439170FFF7C0FB084653E0287EEB
:1015B0003979AA8828F0B7FB119AE882B8784021D7
:1015C0000143B97014701821304628F03CFCFFF735
:1015D000ACFB04203EE068700F9AD17812791202B9
:1015E000511899833289891A89B2704A914200D977
:1015F0006AE51C460121997604281A462F46ACD18B
:10160000304614461CF0A6FE2246A0807878A4E757
:101610000D991A2638784007099D05D40F20109996
:10162000487207212846F5E60C460F212846324627
:101630001FF0C8F8A979089880B20090A2B20C985F
:1016400083B230461EF016FDFFF76FFB08461D46BD
:1016500001E01D4678702E46C1B2042904D120460F
:101660001CF078FEB08078782546C0B225F0BBFC2F
:10167000307634883979B28828F055FB844201D21B
:10168000308804E0307E3979B28828F04CFBF08253
:101690001721284615F0E6F9FFF747FB10960E973D
:1016A000119D059828820D9B6B820C9EAE82089836
:1016B000E8820799297606996983149F1599169AE5
:1016C000EF6129626A620B998B80CE8008810220CB
:1016D000087000204880A08EC11D0A9A1180618E7A
:1016E00049080F9A8A4226460AD11099814207D1A9
:1016F000F08E00090E99814202D110213046C9E7CF
:10170000129800780128139932D108780F282FD128
:10171000F12130461AF03EFB34E02C4635464000BD
:101720002070580060805000A08020890001208136
:101730000222304626F011F930883989401A80B2E9
:101740001A49884200D9BFE40D9800880E9909888B
:10175000491C129A12884A435100884221D901201B
:10176000139948740021F983119A107038462CE7B8
:10177000887A002802D008781A280DD1F121304645
:1017800015F070F9B079298A6A8AAB8AEC8A0094DC
:1017900019F038FDFFF7C9FA0F20C873F32130465E
:1017A00028E53B20A2E4C046046F0020FE7F000035
:1017B000F0B591B0002902D4002400F0FFFC0C46E3
:1017C000294F387817F036FF002801D100F0F3FCDC
:1017D00005460078A2280D955FD0B02801D000F012
:1017E000E7FC0EA800210180204E7068002808D177
:1017F00027F084FC28F07CF97060002801D100F00B
:10180000D2FC06943E461436002418223046214667
:101810000B9227F051F8287901210C91811E16298D
:1018200001D900F0B9FC401C059007964900C0465C
:101830007944898849008F441B00AF04AF04AF048A
:10184000D400AF047100AF040C02AF044302AF0434
:101850007700AF044C01AF04D901AF04AF04AF046B
:10186000AE02AF047902C04690780020987700203D
:1018700027F044FCB8826888314624F08DFF0028A8
:1018800000D1F3E22889B98A884200D30846B88299
:1018900001200C90032000F06DFC687965282ED1A2
:1018A0000C370C97384628F0ADFA002819D00646B8
:1018B0000089B17A37460C373A4610F095FB054659
:1018C000142801D0002D0CD10C98314626F056FB7F
:1018D000142D03D1B17A384627F0BCF8304628F0F1
:1018E0000FF90C9828F000F900280D9D07D0F14859
:1018F0000078F1490870F14900220A7001E0ED48D2
:101900000078FF2801D100F053FC294624F0C6FDE1
:10191000002801D000F04CFC00F04DFC00210EAA84
:1019200028460AF0F1FE1EE3688824F045FF049083
:10193000401E0B90B88A00242246A9898A4200D30F
:10194000B1E280B20B99814200DCACE2089227F050
:1019500092FA80B210A91FF047F9012700280C97CE
:1019600000D1A9E201460A946888099010AA128859
:10197000EB48436828790B9CA7B20026E94CA51CCC
:101980000095019602970390099806F0A7FC00289D
:1019900000D08DE2A06900280D9D079E09D16888BE
:1019A0000F210023E04A15F09DFDA061002800D121
:1019B000E5E2A18A62885318049FBB4203D30B9AC5
:1019C000521A628092B24018D549496826F0E2FA6C
:1019D0006088A18A0818A082089A521C0A9CA41C3C
:1019E000ABE7688824F0E8FE27F063FA10AC0094B7
:1019F00018F074FA0546781F0A90F81FC94F0024A2
:101A000080B20990B81C0890A1B2002D00D11CE250
:101A10000A98884200DC18E20B910C940D9F78889C
:101A200010A90A88BE494B6839790024089E00969F
:101A30000194099E02960391294606F04FFC002866
:101A40001CD13A8AB7484088824217D17869B44994
:101A5000496825F011F90028B24F10D0B869002864
:101A60000AD10D98408807210023AF4A15F03AFDAE
:101A7000B861002800D12BE36C8900E0A94F0D98D4
:101A8000418910A802880FAB284615F071FA054667
:101A9000002C13D0B8690C9A511C0B9BC454200A1B
:101AA0001446BA69A31C89B25054002D99B207D0CC
:101AB0000F98BA6950540FA8407804E00C9CA3E733
:101AC000BA69FF205054E11CBA69241D89B25054F0
:101AD0009AE7688824F070FE27F0EBF910AC0094C8
:101AE00018F0FCF90146B81F0A9000258D48801CAB
:101AF000099008950C950D46002D00D1EFE10D9C45
:101B0000608810A90A88294618F0CEF8002800D06D
:101B1000E7E10C9F60880B9010A90A8880494B6808
:101B200020790A9CA4B200262946099D00953546D5
:101B30000196029403900B980E4606F0CFFB002806
:101B400000D0D0E1BCB2002C0FD07648C18A4088CA
:101B5000021D8A4200D0F3E100190A9988422F46FB
:101B600000DDEEE16F4FB86910E00D984088112755
:101B7000002339466C4A15F0B5FC6A4A906100288A
:101B800000D178E25188091DD1821746B17A0C9BA9
:101B90005A1C0155F07AB9699C1C92B288540D9870
:101BA000418910A802880FAB304615F0E1F90546CF
:101BB0000028A1B205D00F98BA6950540FA84078F8
:101BC00002E0BA69FF2050540C9BD91CBA6989B253
:101BD00050541C1DB869A1B24018514949687A880F
:101BE00026F0D8F9788800190C9085E70124287C24
:101BF0000027022804D1687C012801D10327002492
:101C0000288910A91EF0F0FF002C00D128E106461B
:101C1000002800D124E1307A80060CD510A8008875
:101C200026F026FE002800D122E203466888122210
:101C3000314698470746002F079E00D038E2688853
:101C40002989EA686B896C7C002C00D11AE2522544
:101C500019E2288910A91EF0C7FF002800D10EE163
:101C6000064668880B21304A0FAB15F03BFCB86183
:101C7000002800D12CE1034668880C9010A90A883E
:101C80000FA908882C7900270799009101970290E5
:101C900003940C98314606F021FB002800D139E16D
:101CA00006462048806913F051FC162E00D138E119
:101CB0003746E5E0A67D0020A57D00206A7E002055
:101CC000288910A91EF090FF002800D1DCE006460C
:101CD00068880D21144A0FAB15F004FCB861002888
:101CE00000D1F6E10346688810A90A8869890FAC1B
:101CF00024882D79079F009701AF32C7314606F03F
:101D0000EDFA002800D10FE107460648806913F07C
:101D10001DFC162F0D9D079E00D10DE12BE1C04645
:101D20009877002090780020FFFF000068880890D6
:101D300023F09CFD0A90002800D1A8E0287A012811
:101D400000D0E9E1FC48857809942046C6B2AE424D
:101D500000D321E10A9A52680C237343D75A002F0B
:101D600000D11AE1002C0ED0BC4200D046E1D218BE
:101D700053888EB29E4200D040E19288099BD318CE
:101D80000993511805E0D1188A8849880992891861
:101D90003C46401CDAE768880124214624F0DCFA3E
:101DA000002876D00C942E460836308810A91EF0F4
:101DB0001BFF002800D190E00746007A800600D57E
:101DC00097E06F88384623F051FD002806D1DB48A4
:101DD00023F04CFD002800D1B0E00780D6498A7876
:101DE0000C2151430C3100231A460C32914200D190
:101DF000A4E04468E35A002B1346F6D1A0180C382F
:101E00000C2731463A4626F0C5F8079C2046314655
:101E10003A4626F0BFF86888AA89172100273B4672
:101E200015F060FBF549C861002800D188E12969F7
:101E3000AA8926F0AFF86888214622F025FC002800
:101E4000264600D0CDE10746CCE1200425D0880805
:101E5000B8820D9D6888079E314621F0E9FE80E03A
:101E6000002C079E00D121E1012721E16888298902
:101E7000BA8A914200D311461DF068FA8CE101271D
:101E800028890EA908804CE00127079E73E0089876
:101E900047E1142068700E2720E10D9D28890EA9C6
:101EA00008800A2719E16888314622F019FC3AE1D6
:101EB00007460D9D079E0A9C26F0DDFF0EA90880AF
:101EC000CE488069002800D140E113F03FFB3DE19E
:101ED00028890EA90880112723E00C9F32E1089F72
:101EE0002FE0074601E00746354668890EA90880BD
:101EF00027E010A8008826F0BBFC002800D1BFE036
:101F000003466888122239469847002800D158E7CE
:101F1000074617E16888079922F0F8FB002800D0EF
:101F2000162701200C9010E10D9D6888079E314610
:101F300022F0C0FB002818D10027CFE0092701E1DB
:101F40002F460C980004079E11D0AC4DE98A0C98DE
:101F500080B21FF00FFFA8820D9D6888314621F0E6
:101F60007FFE002801D10746B8E01627B6E0002F13
:101F700000D10A270D9D28890EA90880AEE0A86827
:101F80000A9A8118805C4978090208180EA908800D
:101F900001200C901127DDE02846C0B201280998E5
:101FA00060D900042AD0099880B21CF07BFA00287E
:101FB00024D00B90B54200D335460C276F43002444
:101FC00025460A984668A74200D18AE03619B168CA
:101FD00000290AD0A8B20B9A1018B28825F0DAFFAF
:101FE000B0884519B06813F0B1FA002C04D0002174
:101FF0000C22304626F060FC0C34E2E7002201237C
:102000001746591E7E48807881420D9D079E00D359
:10201000DDE00A994C68A15A002900D1D7E083423B
:102020000B9806D0A0188089002801D0162000E067
:1020300018206F880C92A618B2680993B388758827
:1020400000950190384614F04DFF099B0746002883
:1020500004D0162F00D0B4E00020B0600C9A0C32EF
:102060005B1CCEE70A984668B268B3880D9D3FE0D6
:102070000E27079E1CE070890EA908800D9D2CE09C
:102080000E275FE02D7900240094019514F02AFFBB
:10209000162819D0074600280D9D07D1687C002816
:1020A00000D1A1E001200C90274606E0002F09D0C6
:1020B00028890EA9088001200C90687C002845D052
:1020C000002743E00027F6E70C9427460D9DF4E730
:1020D0000D9D28890EA908801127079E01200C90CC
:1020E00034E00B9AB260099BB3800D9D688808901C
:1020F000318870881824009001949BB2089814F0DD
:10210000F1FE002808D00746162811D10020B06043
:102110000A981DF07BFB3FE00A981DF077FB079EB5
:10212000688826F047FC01210C91002826D133E075
:1021300030880EA9088049E098770020FFFF000052
:102140000C97112730880EA90880079E002F13D006
:10215000162F11D0687814280ED0287927490875D1
:102160000E98C8820F766888314625F0BBFC00289F
:1021700002D00120059001E0162F0DD16888059945
:10218000CDB22946324614F04DFB002803D030462C
:10219000294626F05FFC0D9D28461FF08BFA0C980F
:1021A0000028069C04D028460830297926F052FCE5
:1021B000284624F081FD0120C0078443204611B049
:1021C000F0BD0C98205A0EA908800D9D079E0A9814
:1021D0001DF01CFB01200C90162FDDD0002F9FD08E
:1021E000B4E7162700207AE7688826F0EBFB012188
:1021F0000C91002800D157E71627A7E79078002018
:1022000098770020F0B591B004468078002510281A
:1022100000D99CE34000C046784480884000874451
:102220001000960396039603960356003A00960311
:10223000960320015000E500FC0096036E01370173
:1022400070036078002800D081E326F021FF07901A
:1022500027F00EF8089023F0A5FA0BAC20700226A8
:10226000102730463946079AB04B98470320394625
:10227000089AAE4FB847042001212246B84720787B
:102280003043032800D062E3012017F0EFFD02463F
:1022900006200146F9E0A0881FF00CFC27F0B4F9F5
:1022A000002800D053E3A24CA07B012800D05FE1BE
:1022B00023F0D4FF0021A173606A627D26F0FCFA4E
:1022C0005DE16078002800D140E10025FDE2607802
:1022D000FC2802D0002800D039E30126E178201D37
:1022E00062890892277B00250095314009AA2B4678
:1022F00026F0CFFD00286DD109A8007824F0A4F9BC
:1023000004463E46083E701E86418948C07D8000D6
:1023100027F0EEFB0790002800D177E109A806908E
:1023200001788348C078801E42424241009208985A
:10233000059422463B4619F059FE0BAC00271422A7
:102340002046394626F0B8FA06980078062106910C
:10235000484324301021224625F002FA002818D1E3
:102360000BA8FF21102224F04DFE002811D109A84E
:1023700001780698484325300BAC224610320421E0
:1023800025F0EEF9012105980140089822461CF03D
:1023900017FB09A800785321890040186449C97DBA
:1023A0008900079A25F0DCF9002800D16DE160482A
:1023B000007E002807D10598800704D55D48017884
:1023C00008981DF0C7FD09A800781AF051F8079881
:1023D00027F096FB002E00D1B9E25548C0780228BC
:1023E00000D0B4E2089827F0C7F9B0E2012526F042
:1023F00029FB002800D1AAE24D48C06A002800D17C
:10240000A1E00668002E00D19DE0E01C6189227BDE
:10241000637B24690094B04799E2A588277B28460E
:102420001EF09CFD002800D190E2044626F00AFB35
:10243000002800D08AE2A01D6179002300930126C4
:1024400031400BAA26F025FD002800D1E2E03848F3
:10245000C078002800D074E20521284624F04BFD06
:1024600074E2201DE17800230093012529400BAA86
:1024700026F00FFD002800D069E20BA801780620A5
:10248000484325300C340421224625F0B3FD5EE29A
:10249000274FF86A002806D04368002B03D0A08895
:1024A00000210A469847F978A088002953D01EF0E9
:1024B00055FD002800D14AE20646A07AC00715D093
:1024C000B01D727900230093012111401A46089330
:1024D00026F0DFFC002809D07079022806D3A089F5
:1024E00053218900B431084200D1F0E0F87B022882
:1024F00036D1A07A000733D4A08803212DE060787C
:10250000062800D0B2E0A0881EF028FD002800D1E7
:10251000ACE00749897C491E032900D9A6E0C046E2
:102520007944097949008F440799949EF57F020008
:1025300078760020A76D0020A388417900221846F4
:1025400012F028FD92E06089012106E0A079C00721
:102550001BD10025BEE10125052124F0CCFCF6E1CC
:102560000125A08808347179224612F013FDEEE1AE
:10257000E07C002839D012F073F80020E07450207D
:1025800023F0ECF91CF084FBE1E109A80025082602
:102590002946324626F090F9A0881EF0DFFC00287C
:1025A0004CD007466069002815D006970790113077
:1025B00000210622089024F025FD002800D1A4E087
:1025C000002706220798394624F01CFD002800D178
:1025D00083E06761069F78790121014009A8817134
:1025E000B91D062225F0D6FCB4E0607D00268642A7
:1025F000C5D2616A895D012906D1F0B20BF0EAFB10
:10260000606A00218155607D761CF0E7042024F08B
:10261000C7FF9CE10BA8007824F016F8FF2800D132
:102620008FE10246780745D4002A43D10BA80178F0
:10263000A37C0096284619F0D9FC87E124F05CFAC7
:10264000002800D196E0CE480078042111F00CFA61
:1026500090E0CD4800210A4602F040FEA088052106
:102660001CF0DCFD02E0A0881FF012FF0125C54828
:10267000C06A002800D16AE14368002B00D166E1FE
:10268000A08862780221984761E1079C204624F0E7
:1026900043FABC48C07D874200D388E621880029E0
:1026A00005D0A278089824F035FCB648C07D7F1C80
:1026B000241DF0E70C2007400C2F00D13CE1082F2F
:1026C00000D135E1042FB1D1D007AFD139E1A088D5
:1026D000032124F010FC089D39E105960798007C41
:1026E0000121014007913E46761C0898067000972C
:1026F00007993A463B4626F0CCFB002801D130062C
:10270000F2D13006059E00D163E76269002A069F78
:1027100020D00596107C0121014009A88171089202
:10272000164611360622314625F034FC7879012808
:1027300005D138460C30B91D062225F02BFCB81DFA
:102740000622314625F026FC0898007C0221014330
:102750007971059EA1793879FD220240480802234B
:102760000340D018090702D4DF21084001E02021EE
:1027700008433871A0794107C90F09AAD3790640E7
:102780001E430E43D6716169002921D00BAE10277C
:1027900030463A4625F0FEFB3046394624F0BCF878
:1027A0007A4800780D277A4E854211D23168C919CE
:1027B0000A460D3A1278FF2A07D00BA8102224F0FF
:1027C0005BFA012805D0714800786D1C1E37EBE7D5
:1027D000FF2509A881790026009610AA334626F025
:1027E00058FBFF2D1DD034281BD16648007D0128E1
:1027F00062D0002815D1664801681E226A438818F5
:10280000401C895C0025009510AA2B4626F041FB50
:10281000002806D110A800780BF0DCFA002800D1BF
:1028200098E009A88179009610AA334626F031FB7A
:10283000002804D01FF0FEF810A908701DE061699F
:1028400010A80078002918D0062343432333102111
:102850000BAA184624F084FF00280CD10BA8FF21F6
:10286000102224F0CFFB002805D109A98A79012084
:10287000104024F021FD10A800784249497D88428B
:1028800018D2A26825460C352ACD0F690095019112
:102890000297039609A90AF0DDFB0546A08816F009
:1028A0009FF8002D38D010A800780BF093FA1CF098
:1028B000EFF906E0152504E0A08805211CF0AEFC28
:1028C0000125A0881FF0F6F860780B2802D1A088B7
:1028D0001FF0DEFD2B4EF06A002812D04368002B5B
:1028E0000FD0A0886278012198476078002808D12D
:1028F000A079C00705D0F06A4368A08803212A4662
:102900009847012524F0F8F8002820D01C480078CA
:10291000042111F0A9F81AE01A48817DA088002945
:1029200002D01FF0C7F801E01DF0C0FD3546CBE72F
:102930000920024205D079E6D00702D0100700D561
:1029400074E661790022284612F024FB012528460E
:1029500011B0F0BD1CF09CF91FF06CF810A90870C4
:10296000A1680891E1682369626900292F4600D0B7
:102970000F69009201910297039509A9089A8AE7C5
:10298000A76D00207876002009040000306F002039
:10299000DC6E0020F0B595B00F46097806260029B8
:1029A00002D17C78012C02D1304615B0F0BD0692E0
:1029B000BD781D2D01D01B2D1CD132490978FF296E
:1029C000F2D000261D2D079070D122F013FF0028B1
:1029D0006CD00546827A002A67D050B200260028C3
:1029E000E2D41D21079824F0B7F8A87A802101438A
:1029F000A972D9E7079022F0FDFE0024002800D13B
:102A0000BCE2012D06D10546B868B98809AA24F0B0
:102A100063FA0BE0817804268D42C5D14368002B10
:102A2000C2D00546B868B98809AA98470646002862
:102A3000BAD12E46A878401FC1B2C2014908511828
:102A4000C9B2092900D9A3E001252A468A405723A3
:102A50001A4200D196E0BF78E8410928059500D9CF
:102A60005EE2059D4000C04678448088400087446F
:102A70000B001A0198005702390157025101570201
:102A80005702E100547D0020052F00D026E126F0FA
:102A9000D9FC09A98A780A980988012A00D0EAE1B4
:102AA00089004018011FC01EEBE12E460596BA684A
:102AB000BB8809A8009000252846214622F042FC48
:102AC00006460028079A00D06EE70FA8FF21017084
:102AD00008A80570F54E706800280AD00368002B1E
:102AE00007D008A914460FAA204698472246002876
:102AF0001CD03078BB7809A90091002411462246E9
:102B00001BF056FB0646002800D04DE70A98002827
:102B100001D0069804700599002900D12EE2B878FA
:102B20001D2800D02AE21D20887227E20FA8017814
:102B300008A80278204618F005FD22460028D8D0C3
:102B40000A98002802D001200699087005990029EA
:102B500008D0B8781D2805D11D208872104621F0B4
:102B600025FD2246706800280AD04468002C07D052
:102B70001046164625F0DEF9012801D13046A0475F
:102B80002E4611E7092903D13169002900D062E7F7
:102B90003546707AC6490978884200D0DEE00026C2
:102BA000F1E0092F00D000E109A801884A1E408801
:102BB00042432423F55C6D1CF5540A9B92B29D1888
:102BC0009A5C6B781B029A180292327B012A00D021
:102BD0004FE10197414309AA0027178089B2039169
:102BE0000496354613353946CEB203998E4200D34A
:102BF0003DE10499897C0A9A9219521D401F83B2C3
:102C000028461CF025FA002810D0B8B2864206D01B
:102C10000A990818891909AA528825F0BBF909A947
:102C20004888C719099A521C0A8001E009A84088FF
:102C30003118D9E7307B012800D0C2E0172F00D02F
:102C4000E7E03069717D0C256943425A09AB1B8866
:102C50009A4200D0DDE04018418809AA528891428A
:102C600000D0D6E0828809A989888A4200D0D0E0C5
:102C700080680B9924F000F8002800D1C9E0019782
:102C8000707D411CC8B271753746317D884200D3D2
:102C90007EE1396945434E193888495B7288B388AB
:102CA000B5680095AAE0072F18D126F0CBFB0A984B
:102CB00009A9098889004018011F0978C01E0078F9
:102CC00000024018F189884200D31AE131460C31E4
:102CD000401CB08130881AF0F3FEE0E009A80079CA
:102CE0000A28A4E00D2F00D09EE026F0ABFB09A837
:102CF0000588308823F060FD401EA84200DD00E119
:102D000031460C310998F2891018F081308824F08E
:102D100031FFC4E0112F00D092E00998401E09A9AC
:102D2000498841432420325C521C32540A9889B2AB
:102D300040188178C07800024018002599498842DF
:102D400000D1F3E0411CB181F189814200D8EDE06E
:102D500031460C31308822F0D5FFA0E0BB7809A9BC
:102D600000910024079922461BF022FA064600280B
:102D700009D1B97809A81EF0ADF80028264602D07E
:102D80000026069806702946A8780328079808D1D7
:102D9000898909AA1288914200D311461CF0D6FAFB
:102DA0002946084616F00BF8FEE509A80079062822
:102DB00001D00A287ED12420305C00283ED1012099
:102DC0007BE0172F25D1308823F0F6FC401FB18B14
:102DD0000A18B283718A511A8BB2B18A8B4200D31E
:102DE00091E00197CD1A854200DB05463088318A93
:102DF0003746B669F3180093ABB292B21BF04BFCA6
:102E0000002800D1BCE00FA8002101703E46019FC0
:102E100002E00FA80021017030880FA924F06EFE97
:102E2000012F17D101201EE009A800790728059D70
:102E300076D12420305C0028059D71D0002556E015
:102E400009A800790A28059D6AD12420305C4542F2
:102E500045414CE0307A51491AF022F81920B070FF
:102E60004F48706016200125012859D084E0049E47
:102E7000019F029925E012224A4380180146123927
:102E800011380978007800024018F189884238D258
:102E900031460C31401CB081308824F03BFE307A42
:102EA0003E4919F0FDFF162540E0C046547D002044
:102EB000166F00202420305C401C2421705409A887
:102EC0004188481E00250A46374988420FD8308A73
:102ED00082420CD2521CF281317B012916D10FA9FA
:102EE0000A804880314888802820887110E0012FAE
:102EF00016D1002D14D109A800790A2801D1012585
:102F00002DE0002512E00FA8012184E731460E31A3
:102F1000308822F009FF307A204919F0C1FF1625C8
:102F200009A8092F02D10088002813D0707A09A9B6
:102F30000091002207993B461BF03AF9002802D085
:102F40000120059006E009A839461DF0C3FF414263
:102F500041410591162D0ED0002D059D07D1707AA7
:102F6000B378002100911A2207991BF021F930460D
:102F700015F025FF00E0059D06980570264613E52F
:102F80003E46387A054919F08BFF1620019F6AE703
:102F90003E46B87D0FA9087039E7C046307500007D
:102FA000DF950200FFFF0000FDFF000002030000AC
:102FB000F0B593B0002800D12BE204461B2000019D
:102FC00020180D905B20800020180E90FF200146F5
:102FD000663163182321C90061180A910146063140
:102FE00061180B912146F0310F91214684311091E7
:102FF00026467736214676311191214667310C916C
:103000000E3020180490581C03902046E0300790A2
:103010002046A43006902046D03005902046B4309B
:1030200009902046BC3008901F4F1293B07A0025BB
:10303000002800D155E2317808462D380D2800D8F7
:10304000ECE1881E282846D84000C0467844808895
:1030500040008744F00149002B00E000B300FC0071
:1030600049008000490003012F017B009B001001F3
:10307000720041015B014900620049004E008E0070
:103080004900490049004900EC0149004900490054
:10309000490049004900E801E801E8014900490008
:1030A00049004900EC01C046146C002026F04CFC9D
:1030B00000D0ECE1F87A002800D1C4E100200C999E
:1030C0004871F12126F03CFDA0790999089A1DF07C
:1030D00019F8129BAAE7F22900D11DE1F12900D1CC
:1030E000FFE1F32900D1E4E1002024F059FA129B1A
:1030F0009CE726F029FC00D0ADE10D9A107B41063B
:1031000040D4C10700D079E1810700D400E2BC219E
:1031100008401073A1791A2076E126F015FC00D042
:103120009BE10D9A1078810600D523E1810700D438
:1031300089E1DD21084010702EE126F005FC00D069
:10314000A9E11879012800D19DE038E126F0FCFBC7
:1031500000D1C5E085E126F0F7FB00D099E1F87ACF
:10316000002800D16FE1608CE08302200F99087580
:1031700029E126F0E9FB00D08FE10D9A107B410692
:1031800000D460E1BF21084010731CE126F0DCFB95
:1031900000D06AE1F87A002800D014E10F9F387D52
:1031A000032800D0AAE1A1791A20049A1AF09EF906
:1031B00000203875204619F0EBF945E026F0C4FBF5
:1031C00000D062E1F87A002800D13CE1608CE08315
:1031D000204619F0DDF901250C9F3D7020461BF0BB
:1031E000ACFA7D710F9D297B0B980278102010405E
:1031F000012900D0ECE0002808D0002012990870C6
:1032000048780A99896C490819F04AFEA07900218A
:1032100020F0D4F9EBE026F097FB00D083E0F87AB9
:1032200000280F9F09D0012110988175A0790A46C6
:1032300026F0F9FC00207860B860B87B012800D047
:1032400001E1062126F07CFC129BC14FEEE607212E
:1032500026F0B0FD012800D1B5E042E126F074FB74
:1032600074D10F98C07B012800D0ECE0F12126F04A
:1032700067FC129BDAE626F067FB00D003E11879C1
:10328000012800D08CE00E98007E0F2803D000208B
:1032900024F086F9129B002018710E98407EA179C7
:1032A000109DAA895208EB892D8A2D0900951CF0E2
:1032B000BDFE88E026F048FB00D0DFE00B99087CDB
:1032C000012800D0EBE0487C01287CD125F0FFFDEF
:1032D00000201EF0CAF876E026F036FB00D0BEE0F3
:1032E000F87A002810D0002210988275A079012762
:1032F000394626F098FC02960C9E377020461BF04B
:103300001CFA7771924F029EB87A5AE026F01CFBA5
:1033100000D0A8E0F87A54E01098817826F010FCEC
:10332000012011990FE00F990878012800D1DBE006
:103330004878002800D1D4E007980699059A1BF038
:1033400007FC01200F990870129B6FE60B2126F0F5
:1033500031FD012800D0C4E000220F98C2731098FC
:103360008275A0790125294626F05DFC119805702B
:10337000129B5BE6DF210140117001070CD5D721BC
:1033800008400D990870A0790E9D298EAA8E6B8E2B
:10339000ED8E00951CF092FE00200E99887712E0C9
:1033A000D87801280BD10020D870A179109DA88968
:1033B0004208EB89288A000900901A2077E71098C4
:1033C000007900283FD0204619F0E2F8129B2DE644
:1033D000002807D00A98806C42085E482146039B6B
:1033E00025F08EFFA0790021012220F0CDF8584F62
:1033F000002028732874E881129B17E6BE2108403C
:1034000010730E98407EA1790022134616F0D6FD67
:10341000D9E7002024F0C4F8012562E0204626F018
:103420004EFC05465DE0204626F01DFCF9E72046EF
:1034300026F00DFCF5E726F087FA4DD1B87A002882
:1034400001D0162103E025F09DFE4AD1222120461D
:1034500022F048FAE0E716213FE014213DE0112177
:103460003BE00D2139E0122137E00E2126F0A2FCCD
:103470001199087001200F99087532E001200B990D
:1034800088740C2129E00F2127E0062125E0042182
:1034900023E0092121E010211FE017211DE025F084
:1034A00071FE1ED125F013FD222528461DF0DDFFFB
:1034B00038E01098817808460C38082842D8C04671
:1034C0007844007940008744043D04303D3D3D3D53
:1034D000040026F035FB0FE0022126F06BFC119969
:1034E0000870284613B0F0BD052126F063FC0128C2
:1034F000F7D100250F9885730120F0E725F042FEF3
:10350000EFD1A17922252846049A19F0EFFF09E0AE
:1035100025F038FEE5D1A179222500222846134660
:1035200016F04CFD2046294692E7F12126F008FBD3
:10353000A0790E9C21886288A388E488009417F003
:1035400061FECEE70025284624F02AF8C9E7C046E8
:10355000146C00209D780100F0B5A5B01390F448DC
:103560004068002803D08047002800D144E20321AE
:10357000F04BF1480078441E139A002A0E9422461C
:1035800000D001220904159159780F91997816916C
:10359000DA731F46183700252C4685421FD216982D
:1035A000A84217D0002117AA04262846334624F043
:1035B000B9FB17981599084200D0641C3043C0B27B
:1035C0007C2806D10621F8262846324624F0B6FB90
:1035D0003E70D84B6D1CD84800780C37DDE7E1B25F
:1035E000401E884204D15879002801D1002004E20D
:1035F00001200590C2021398002800D110201399D1
:10360000511A06911292101A089000200B900990FE
:103610000F9D0E9C0B99200400D1CFE11491D87B13
:10362000002801D10120D873EEB2002717AA042385
:103630003046394624F076FB17981399002913D0A9
:103640001599084213D0701CFB4909781EF092FBB3
:103650000D46F84B129818825973D87B401ED873C8
:10366000641E1499491CD6E70A970F9D02E00E9438
:1036700014990A912C46C0B2702803D0E0B2702190
:1036800020F004F81698C7B2002517AE0423384678
:103690002946324624F046FB3078FE2803D0FE212E
:1036A00038461FF0F3FF0621FE263846324624F046
:1036B00045FB0C22104678431197DE4F39461631F0
:1036C00008180D90867016983873129838827C739B
:1036D000E3B216931492104658430818C6887E82A7
:1036E000FF20B873BD827D208100D548079124F06A
:1036F00062F9CF480570F87BD049169A511808181E
:10370000CD49097800B216911AF086FA23463A4656
:10371000119F10910D98C0880C902946DCB2BC42D4
:1037200000D1BBE0E80700D0CDE0B7B2162F00D83B
:103730009BE0BF480078002800D057E716910F9310
:10374000F01F049081B218AD20462A4617F068F9A0
:10375000E98908461030B8420DD8A87A96280AD1CF
:103760000498451A18A8427AA8B20491234619F081
:103770007CFC002828D0751EAE4A119FAEB2162ED2
:103780000F9B00D818E1362E00D33626163EAD1B0F
:10379000B3B2A9B21DAA204624F0C4FA300408D05E
:1037A000B0B21DA90818401E0078962803D0761ED6
:1037B000F4E7A04AE2E7761900259E4A0F9B169986
:1037C0009D4800781690A9E7029518A8C07A0025B0
:1037D000C107984A119F04D180070F9B03D4029E12
:1037E000EDE7029EEAE70498C11D0C9880B20491AF
:1037F00089B2091812980191814201D9059DDEE72D
:103800008B480078029F049E310420D000281ED1EE
:103810000496B6B20798864200D3079EB9B22046F6
:103820000397874A334624F07DFA0C9FB9B211986A
:10383000834A33461FF0E6FA7D490870BF190C979A
:10384000039FBF1904998E1B7A4A0F9BDCE71699D8
:10385000491C1298019C844203D1029E0C90059D44
:1038600001E0029E0C94119FAAE7002903D014984E
:103870006043101886831098C0B28442119F29D0EB
:10388000601C169989B21EF075FA6A4A0B46084602
:10389000149948431018868B00253EE76448007849
:1038A000002800D0A2E6169A11B264481018001938
:1038B00000B21AF0B1F95F4A0B46C8B214994843F6
:1038C0001018868B0CE0002905D014984443101979
:1038D000868300E0109B56480078002800D085E6DB
:1038E0000C991182968293730D98C180517B12209E
:1038F000125E01243846234621F0B4FE4D48817BF8
:1039000014204C4A125E0223384621F0ABFE49488F
:10391000008A1399002905D0069981420A9E02DB8C
:10392000099400E00A9E0899814207DB7C2106E0A9
:10393000F077002024660020056F002078213846AB
:103940001FF0A4FE0CF01AFF05463846394FF97BEC
:10395000491BF9730621FC24224624F0EFF90D9847
:103960008470B878B1B26918081833490E783146B6
:103970001EF000FAB9701691481CC0B231461EF014
:10398000F9F97970B97B149848433818808B10285E
:1039900005D1481C31461EF0EDF9264B00E03B46B0
:1039A0000F910E98401B0E901399481E8141099863
:1039B0000140012902D02BE610268CE77C2020F064
:1039C0008FFBFF2804D17E2020F08AFBFF2817D030
:1039D0000446184AD470E0B20C2141435018808B41
:1039E000D0809078FE2114461FF050FE00206071B8
:1039F000208A1299081A00E00B2000B225B0F0BD11
:103A00000C494C780C2060430818807DFF2809D0B1
:103A10008878094909784018401E1AF0FDF8054ACF
:103A20000C46D7E77E2120461FF030FED1E7C04686
:103A3000F077002024660020056F0020FFFF0000C3
:103A400054550020F0B59BB00446E74D2878E74F69
:103A50003870032800D017E10020287038700FA8B4
:103A600025F060FC002800D00CE101200E900F90A2
:103A7000384624300FA91DF0A3FB002800D001E137
:103A80000E98C0020D90DA4E5E21304623F093FF6F
:103A90000C360A21FF2230460C9223F085FF21F0DC
:103AA0002FF80026304621461CF028FCB860394625
:103AB0000C3125F0BDFC3C697F69204639461EF07B
:103AC00059F9C1B2062900D30621C9480170C94875
:103AD00001700D988742FE4F00D0D3E0C8028442A7
:103AE00000D2CFE0B868002800D1CBE0F94A567187
:103AF0000C9BD3700E98C002D08007960A96089649
:103B00000696059609960B96029303930493CCB2FE
:103B1000A64200D3BAE000241AAA04233046214664
:103B200024F000F919AA30462146ED4DA847012797
:103B300018AA30463946A847022117AA3046A84796
:103B40001A99C8B20246703A0E2A04D83B469340EE
:103B5000E44A134203D10246FE3A022A03D28A0CF7
:103B6000E14B9A421DD0304610F0ACF9D8490870AC
:103B7000002800D08DE100251AAA042330462946EA
:103B800024F0D0F819AA30462946D54DA84701217E
:103B900018AA3046A847022117AA3046A8471A9902
:103BA000C8B20C227243CB4B9D18163528700A0AF6
:103BB0006A708903890FE97019A98978A970FD28AD
:103BC00001D9102122E019A90988C84A91421DD1C2
:103BD00012940D9C241FA1B212AA0423304624F093
:103BE000A1F81298411C03D12146C14A1140F1D1DC
:103BF0003946FAB2042A06D8C243120600D0394622
:103C0000000A7F1CF5E7C8B201192878E98018A9D5
:103C1000897829711899298117A989786971179963
:103C20006981702826D07828A94F1FD07C280AD017
:103C30007E2812D0FE280BD0FF2813D10798401CF5
:103C4000079004961AE00698401C0690039615E02B
:103C50000A98401C0A900C9610E00898401C0890A6
:103C600002960BE00B98401C0B9007E00598401C57
:103C7000059003E00998401C0990954F761C9648E2
:103C8000017844E7012028701BB0F0BD0B980006B6
:103C90000BD10A98C0B2012807D80998C0B20128F0
:103CA00003D80898C0B2012810D98C4804220270A9
:103CB0000024CAB2E0B290420FD210F003F9397872
:103CC00001433970641C84480178F2E70798C0B258
:103CD000A04212D181480022027000207D4C607009
:103CE000491EA170E070A18BE1807E211FF0CEFC07
:103CF000A078FE211FF0CAFCCCE00998000622D073
:103D00000A98000604D10798000604980C9073D016
:103D10007248022101706F4D0C9EAE70701C80B213
:103D200021461EF027F86970F4B2204610F0CAF858
:103D30003870FE2120461FF0A9FC0E986871002003
:103D4000FFF70AFCA6E00A9800061ED00C98049023
:103D500062480E9A02705F4C0498A070401C80B2BA
:103D6000C9B21EF007F86170039880B2FF2821D114
:103D70000298FF2800D084E0564AD17088B20C2106
:103D800041435018808BD08083E00698059A1043F9
:103D900000064F4F89D021F051FCA04230D3079844
:103DA000000679D04B488078FE211FF06FFC4A480E
:103DB0000178CDE7474A0399D1700C21414350184F
:103DC000808BD080182864D3C11F0398C0B289B2F9
:103DD00012AC224616F024FEE07A400760D40020A0
:103DE000FFF7BAFB55E0C046A37B0020F077002028
:103DF00024660020056F002021F020FCA0424BD259
:103E000036480321017021F019FC0446314E30730D
:103E10000C25284660433018817E7173C07EB073D4
:103E20000CF0ACFC00192C490C7821461DF0A2FFC7
:103E3000B170481CC0B221461DF09CFF71707C20FF
:103E400020F04EF9FF2810D17E2020F049F9FF28FC
:103E50000BD1FF2020F044F9FF2806D1782020F074
:103E60003FF9FF2801D11B4840781A49C870C0B2F9
:103E700045434819808BC8808878FE211FF006FCD6
:103E800007E01449029ACA700C2050430818808B2E
:103E9000C8800F4F3878F7E6104806210170FEE71A
:103EA0000C49C878C98812ACE289891AC91F002256
:103EB000009289B20323224607F060FE0028E8D171
:103EC000A1890029E5D012A8007C1DF0D3FCE0E711
:103ED000F077002024660020056F0020116F00207D
:103EE000158B02000151000083250000FFFF000038
:103EF000FCFF0000F0B587B016460546041D5004CF
:103F00000595029440D40191C805C00E00D189E006
:103F10000520800331468143039100200690824CA6
:103F200082480068042800D288E00496002020F02F
:103F3000A7F880B2451D2F467D4807406069394685
:103F40001CF084FF06466069864204D0082006996A
:103F5000014306916661002E69D0A908F0893546B3
:103F6000103528181AF028F8F0892918E279CA7053
:103F7000C019F0810420069901430691059D686BE4
:103F800025F028FF039ECBE704962E463036F94CE9
:103F900022F032F8039025F0E4FA6F6B7969B86982
:103FA000009121600002F5490860F548808DF64CCB
:103FB000E08121F0D0F8F249888600200190EE4996
:103FC00008830697788AED49888010206071688898
:103FD00021F098FB0446307817F0E2FD294682274D
:103FE000002822D0054608463130007829461EF0C8
:103FF000B5FE002800D0AFE0032C00D0ABE006985F
:10400000007C41424141284603F08CF81FF0F0FF4C
:10401000D948019AC286B056C1B2402900D2CDE03B
:104020001146CDE00020069011E00D4695E0852078
:104030006071D84801210160059D049EA079002887
:1040400004D0A86BD149C96817F0DCFD029C019827
:10405000800431D50496CC4E7089CF494968411A05
:104060004220375A0391B94225D24420345A686B12
:1040700022F00AF8002810D0022101728189B26B67
:10408000904202D10020B063F063481DC34908404C
:104090003F1A641E0398B842E9D3039887420DD1B2
:1040A000002C0BD4383603987081B4811020069907
:1040B0000143029C09E0049E06990AE08420707185
:1040C000B44801210160029C0699B448001D049E79
:1040D00006437006C70F0F430120C503681C0199F2
:1040E00001422FD0032000BF00BFA448808805995B
:1040F000496B48820224A448407910281CD10198B9
:1041000028409F48008815D1411E062900D997E014
:104110001320C0467944097949008F440D039391D7
:1041200091959700142007E060650020CC110840AD
:10413000FCFF01001FF056F92743029C2178000282
:1041400008182080B807059D14D5A86B8F49C96849
:1041500017F058FD0EE02746059D049EF8B20F2883
:1041600001D8002000E00120029C21783A02891841
:10417000218047006078000203210902884212D1A1
:10418000F00305D5686B25F025FE01200004864369
:104190008248001D064206D0686B7B4A38320023F5
:1041A000D9430AF003FFB80705D520F03BFC24F003
:1041B000A1F923F003FA384607B0F0BD40221143BD
:1041C0007F240028059D049E01D4084600E020407D
:1041D0006B4948866C490979002904D0000600998A
:1041E000484068490860FF2064498882284603994E
:1041F00019F060FF07460F28B0D8A86B00250028EB
:1042000029465D4B45D06149C96819621C8200216D
:10421000417084700278D2071CD1584AD186118728
:1042200051879187D187198059809980D9801981C8
:1042300059819981D98101758160C160016124E052
:10424000102079E7152077E7412075E7022015F067
:1042500089F871E7017A494AD186417A1187817AD2
:104260005187C17A9187017BD187417B1980817BFE
:104270005980C17B9980017CD980417C1981817CE6
:104280005981C17C9981017DD98100780221014049
:1042900049083D488171029800780128284604D1D8
:1042A0003A48C0680599096A081A019021F006FB8E
:1042B00020F0CEFB344F38817D610598406B25F0AE
:1042C00089FD012622F058FB78810698017C00299F
:1042D0002B4604D0428A182111404B424B413704EF
:1042E000294C22463832A563E563167255819581C3
:1042F000022103920AF05AFEA2792148808D2449B6
:10430000002A02D08031084602E04007400E4840B3
:10431000059D0499B943049124F0A4FC0698007CFF
:10432000002806D0698E01984018002804DC132765
:1043300003E0042410490DE00327049E002902D065
:10434000012800DA0AE7002900D108460A49488214
:10435000032400260E8724F0B5FB022000BF00BF17
:104360000C4804600023D9430698039A0AF01EFE05
:104370000327F2E6401408407C2009403C20094015
:104380000620094040140840606500203C6A002077
:1043900071A1000030100840CC110840FCFF010062
:1043A000F0B595B024F0B6FEFF2800D1F0E1044648
:1043B000F848456824F0AEFE7B229100414368181E
:1043C00071218900405CC00700D0E1E10B92E0B2AE
:1043D00025F01AFA06460746FF202030315C0129F5
:1043E00003D1301841783846D0E10F204001301811
:1043F0000F90DB204000301812909F243546763510
:1044000025F038FDA87C022814D10F988088000779
:104410000ED5B979788E4208BB8EF88E00090090CF
:1044200000201BF003FE0F9A90881821884390808B
:104430000020A87403954B219122600033469633E7
:104440000D93129B1B78022B02D10023129C237028
:1044500089005500341830462E3005900D980078AC
:1044600002280BD1002014910D990870B8793146BB
:104470006231059A127B1DF09DF9149913977718F4
:104480000A9670190C90218B002902D0A07D0FF0A4
:10449000EBFA0720049025F0EEFC139A5089108166
:1044A000BD4E717C707B11904318F07B14901818EE
:1044B000B37BC018357C089540191090B748056843
:1044C00092793C2007900292504328183025405D95
:1044D0000690B88809914018B880F07CFD882818AB
:1044E000F880307D3D89281838817889119A8018A4
:1044F0007881B8890E93C018089BB881F8891499FF
:104500004018F881388AC0183882B07C258828186D
:104510002080707A658828186080F07AA58828182D
:10452000A080B07AE5882818E080307B658928185B
:104530006081307AA5892818A0810C9A9088401C47
:10454000908010881099401810805088119C001994
:1045500050803D68002D10D02146069840002A1852
:104560002B5A109C1B192B524A20135A59181152BE
:10457000B07B0E90F07B1490337C099800280A9D44
:1045800027D10E98002824D11498002821D1002B7F
:104590001FD10020139CE0830F9E3068B188049ADD
:1045A00011400127FA070240501803D00021029859
:1045B0001BF010FA784B587B00281BD0207C002879
:1045C00001D0E089A081207F012830D1608CE08378
:1045D0002DE00027129807840F9E3068C10F139CAE
:1045E00047D0B1884A07920F3AD0002102981BF0B9
:1045F000F1F93EE00C99C888401CC880207C022755
:10460000002814D06069400005990978644A4A433B
:1046100080180B9909014018149060490968A27923
:104620003846079F7A430746891814984886208998
:10463000A189884204D0401A25D95A49884222DCEF
:10464000B088800606D40C980088002800D19BE032
:1046500008219AE0A0793E2125F041FBFD2194E05C
:10466000CAB2521C03231340049A91435918306074
:10467000B1802089E1890818A081207F0128464B5C
:1046800001D1608CE0832B20C0002918587A0028C3
:104690000FD00120207703980078002809D10398D3
:1046A000807C002805D10D980078002801D1608C0D
:1046B000E083087900280BD0022804D1987B0028D9
:1046C00001D1002003E0187D002801D002200871EC
:1046D000587800280FD058682168C8602F480168B2
:1046E000A079079A4243891800224A86B18801229C
:1046F00012020A4311E029480268A079079B43434C
:10470000D218538E0B60244B116A2268D1600021AD
:10471000E1832177B188244A0A40B28074359978C0
:104720007F2900D181212970812901D025F0A3FAA8
:10473000204625F0A5F801282AD000252046294644
:1047400021F0CDFA204629461BF0E1FA25F0C8F900
:1047500025F0B1FA204625F07FFB25F095F81348A7
:10476000103016F0D7FA3846109922460DF0C8FEE0
:10477000022F00D0257400F01BFA25F0B2FA0028B1
:1047800006D006F073FD03E03E21204621F0AAF892
:1047900015B0F0BD0C6E0020146C0020F47D0020DC
:1047A000C4090000AA100000FFFE0000F8790020F4
:1047B000F0B591B00646002710970F971E20002EE7
:1047C00000D1DAE10C90356E0FA910AA30460CF03A
:1047D000EFFC072801D10720CFE132462932706E65
:1047E000132140567F2805D100211046144621F0A0
:1047F000F1FB0AE010700021144623F063FAC0B206
:1048000024F00CFE002800D1E2E00D9430465D302B
:1048100008902846C0300A902846803009902846E3
:1048200065300B902C463034291DD5482860069100
:104830008F700F80EF71D348A86028460C30242178
:1048400023F0B9F807202070601C0F2123F0B3F883
:104850000D98C057394623F035FA6070706E407A73
:104860002070069B188801221043FE210491884382
:1048700018800592EA7125F033F97D21490140182D
:1048800028620794A7703046294625F02DF828465F
:10489000403029466831A863E9632A21009023F05B
:1048A0008AF87F200B994871EF662F676F67286A37
:1048B0003061B548007808990870B448007800283D
:1048C0000D9A16D0507E04990840022811D1B048A4
:1048D00000680D30144623F039FC2246002808D128
:1048E00030463030AA490968C91D062223F052FB20
:1048F0002246507E411E8841079B19463431039160
:104900000E9634240294195DFD220A4040001018CE
:10491000185528465830303606969E4B06243146A8
:1049200022469847099E37709B48F0800895059D60
:10493000358108988C3006992246964B9847F47238
:104940003C20019737540A9E93487080B58008999F
:104950000298079A105C4001402207921040001D07
:10496000B0710D460846C83006992246894B9847D3
:10497000F4710E98807B012801D004282AD1039E6F
:1049800030784001079908400D99897EC901401887
:10499000401C099FB8720C20F8722C4628469230B1
:1049A0000E9D3C3506220792294623F0F3FA0D9816
:1049B000807E3178059A1040049A114008183070B2
:1049C00020465E302946079A23F0E4FA0A9B41E02C
:1049D0001220D2E027460E9B986E00282C4612D05B
:1049E000C11C0A78497809028A180CD0411D20465A
:1049F00092301E4623F0D6FB3346B06EC078099A3B
:104A0000D17A0818D072D86E0028019E11D0C11C2E
:104A10000A78497809028A180BD0411D2046CE3009
:104A200023F0C0FB0E9BD86EC0780A9AD179081883
:104A3000D071987B0228394600D03146032800D136
:104A400002210A9B099F039800784001079A1040B1
:104A50004018B872214678312546B435F87A801D61
:104A6000B880D879801D18804C488078400606D5DB
:104A7000B87A20221043B87298791043987127466B
:104A80004837384623F0BAF93846294623F0B6F9B4
:104A90002546503521F0DEFC0146284623F07EF9FC
:104AA0000E98006FC17800790002411802D03C488E
:104AB000484300E03B48E0623B480026022726616D
:104AC0006761A0610E9B586E807C0B9D2978032244
:104AD0000240FC20084080182870586E807C002816
:104AE00003D12A480078012817D124F0C5FD0546D6
:104AF00024F0C6FD014628461FF020F800280C9837
:104B00003BD10B9A10781821014311701F4800788F
:104B100001281FD10098056028E0022020F0EAFB60
:104B2000002824D0044618F015FE00281FD10B9A47
:104B30001078042101431170207961790902081865
:104B4000A1790904E279120651180818001F00998A
:104B500008600CE00E98406E807C049901400229A8
:104B600001D100990D603843032800D165640F9886
:104B7000002801D00D498180304611B0F0BDC046FB
:104B80000110000091000000887E0020146E0020BB
:104B9000DC6E0020957F020003020000B66C00204E
:104BA000409C000000204E0049A90100AC0D00000F
:104BB000F0B589B024F0AEFA0446FF2802D10020F7
:104BC00022F0EEFCE0B224F01FFE04461B200001A0
:104BD000231820560028079306D57F210840187017
:104BE000204613F00BFC079B2246883221462E31CB
:104BF000A06E00680068002802D00020E08311E069
:104C00004820085C00280DD1107800280AD1907B3C
:104C1000002807D19879002804D1207F012801D1EC
:104C2000608CEBE708920091DD272B20069021890C
:104C3000E08B04914E1C35186581204621F0B0FBB5
:104C4000002803D1C1480078012803D10020E08367
:104C5000668135467E000698C0000590089F38782A
:104C600001280BD17A88A9B204981FF059FB0028BB
:104C700004D024F033F92DD07A8821E0B87B0128C4
:104C80000BD1208961893A8A1FF04AFB002804D0A1
:104C900024F024F91ED03A8A12E0079B9879012863
:104CA00018D1208961891A891FF03AFB079B0028D7
:104CB00010D062892189481C80B282420AD01A89A8
:104CC000824207D0501E608180B224F06EFF401EE9
:104CD000E083079BA5190598261898790021029171
:104CE000012814D118892189491C89B288420ED81B
:104CF00020461F4624F03FFF6A782A700220B871D0
:104D0000089FA17900200292134615F057F93079D7
:104D1000002804D00020E0832089401C6081039695
:104D200038780128069510D1788821894A1C92B2DA
:104D300090420AD1608124F038FF618E4143F888A7
:104D40000E18204611F0DEFA00E0668E0F2125468F
:104D500020357F48E28B0592571C774302467A4301
:104D60002668F068019210180790F06079483822A0
:104D7000825C002A06D0784A5278002A04D077480C
:104D800000220280608A0EE00491744A13885A1C43
:104D900072490A80002B01D0608A03E0408F039A99
:104DA000D288101804997843490104911921090106
:104DB0001CF0E0FF401C6061A76105992970684BF9
:104DC0001968A2793C256A4389180A6A3261079AF0
:104DD000101A0862B06008798880A08A1A68A679DB
:104DE000294671430792521811463231538E4000C2
:104DF00018185086089A1278022A05D1009A12785B
:104E0000534B5A4310180880049AA3182027524A7B
:104E10005278002A089305D09988394210D131463A
:104E2000079A1DE0029A042A03D1E1221201801898
:104E300008809888384201D000200880069F2BE027
:104E4000002130461E4624F04AFFB088B843B080A7
:104E500043480268A179284648431018408E0E4600
:104E60006943079251180A6A3E4BD2180A622368B6
:104E70009A60019FD21B1A617B22120182184A8616
:104E8000069F3B78042B04D13231572292018218BD
:104E90000A8090B203990860618E3348027C437C9B
:104EA0001B029A18837C1B04C07C0006C018801863
:104EB0000068484364211CF05DFF254941432948AF
:104EC000401890306E4307998919C862FF20063058
:104ED00020180421062222F0D8FC00280CD024F04F
:104EE00031F941B21E4E3268A3796B43D318491091
:104EF00001220240184609E0194E3068A179694341
:104F00004018089989680922895600221DF0EEFE92
:104F10003978002903D1002022F042FB3978A079AA
:104F20003A7915F0B3FD204624F0C7FF3068A17927
:104F30004D434019216848600C4807210170204604
:104F400016F068FB002009B0F0BDC046336F0020AA
:104F5000C4090000DC780020146C0020507E002082
:104F6000F47D0020C0FAFFFFC4D70200246F0020A8
:104F7000F0B58BB00446016CC26A1DF00FFEE16F04
:104F80004A1C904201D9352591E1002813D0206CAC
:104F90008A0087180837891C384623F0DEFFA1688D
:104FA000384623F0BDF8002807D0E66F711C884210
:104FB00005D9C6257BE1532579E16C2577E1237876
:104FC0006625022B00D272E1052B00D96FE1089013
:104FD000216C0A68981E4342434101252A405A40E9
:104FE00080200A9022500898E06720463A460B46F7
:104FF00013F0C4FA20784000001F294681400A9827
:105000002150216C20460A461EF04CFDE667E16CFB
:1050100020460A952A4623F0DBF8626EA06EE16C0A
:10502000A36FE56F0095A34DA847A26EE06E24F034
:105030005EFAA06EE26E24F05AFA216F226B2046CF
:105040001DF0ACFDE56FA84201D93C252FE10028F9
:105050000ED0606CE26E216F24F08AFD216F626BCE
:1050600020461DF09BFDE56FA84203D965251EE192
:10507000C3251CE1074600280ED0A06C216FA26E4C
:1050800024F076FDE16EE26820461DF087FDE56FB5
:10509000AF4203D95C250AE1562508E12646803651
:1050A000A26EE16E206F24F063FDE26C206D216F33
:1050B000A36FE56F009500F085FFE06F421C099635
:1050C0003260656D0026277824F0E1F909DA616C19
:1050D000284623F07BFE0998026890002D18761C64
:1050E000F1E7A56D002624F0D2F906DAA16C284676
:1050F00023F06CFE23F000FFF5E7E56D002624F0B9
:10510000C6F906DAE16C284623F060FE23F0F4FECF
:10511000F5E7216C08688007C20F089840010290EB
:10512000401C0190002507952B460A9E0298864256
:10513000E8B26AD80490069308920198801BB8429E
:1051400000D33846099A1060204632461CF084FF8E
:105150004119C8B27B1E01252A469A409042059506
:1051600000DA00252B46BB4090420A9600DB4842FD
:105170001818089A5049895C9600504A9219079F5E
:105180007B00D218525D920051180006800D001F5E
:1051900004229043081809990860204600F0F0FBAB
:1051A0006800474989190918049A895C039145499F
:1051B00089190818C75D079720780490811E424816
:1051C0008019405C0A9E36181420089A50433F4AC2
:1051D0001218052041435118069D4D5D216C72093E
:1051E00092008A581F233340DA40059B1A40039FE0
:1051F0007A4042430A20089B5843354B18188018C0
:10520000425D2B463D46049F90E7012810D1079848
:105210008000C01C099E30602E4D2046A84701200A
:1052200030602046A847022030602046A8472778F3
:105230009925032F3BD30020C0430890B91E0120BD
:105240000A908840FE30099EC7B20A983060002F4D
:1052500011D07A1C2046394605F0C0F80A98306013
:105260002078801E08998140C94320463A4605F0BF
:10527000B5F8781EE8E72078801E089F39468140FF
:10528000CA43002107912046134B98470A98306083
:105290002078801E8740FA432046079F39460E4BF0
:1052A00098470A9A3260204639460B4B9847284661
:1052B0000BB0F0BDC55F000030DF020070D9020006
:1052C00040D9020088D9020058D90200C4C802009F
:1052D000F8D0020081590000DDA300007FB515461B
:1052E000D14A82181D2A00D934E152007A449288AA
:1052F000520097441D002F01C5005000BA00600005
:105300009A00DE002F01E4002F012F012301150177
:105310002F014500A50078003E00EF000001440188
:1053200039012F0128002F018E004D0133006A0042
:105330001824012900D069E12878022800D965E104
:10534000BA49C87061E11824012900D05EE1002D3E
:1053500000D15BE12878B549087056E1182401298D
:1053600000D053E12878012800D94FE1AF490875F2
:105370004BE1012900D0DFE0287822F04BFD44E129
:105380001824012900D041E12878042800D93DE102
:10539000A649887439E11824012900D036E128781B
:1053A000042800D932E1A1490871032800D02CE17A
:1053B00000244C7178E0102900D0BDE09B485430A7
:1053C0001022294622F0E6FD1FE11824012900D011
:1053D0001CE1002D00D119E12878012800D915E140
:1053E0009249887011E11824012900D00EE1287833
:1053F000022800D90AE1002800D107E18B49C873CF
:10540000022800D00BE110200874012023F06CFF6B
:10541000FBE0002900D08FE024F0F6F8002800D14E
:10542000E0E082480121C174EFE01824012900D096
:10543000ECE02878012800D9E8E07C490872E4E033
:10544000072979D1691C01AE0622304622F0BAFD47
:1054500029780024009403AA3046234623F019FD3E
:10546000002800D1A7E03424D0E01824012900D07E
:10547000CCE02878012800D9C8E06C49C871C4E0A4
:105480001824012900D0C1E02878012800D9BDE006
:105490006649012803D10A79032A00D184E04871C2
:1054A000002800D0B1E000248C71204623F08AFB54
:1054B000ACE0012940D128785C494873A5E0002977
:1054C0003AD124F0A1F8002800D192E057480121F8
:1054D00081739AE0554E707A1824002800D095E028
:1054E000602978D1002D76D051486022294622F0DB
:1054F00051FD012074E01824012900D086E02878AD
:10550000012800D982E049494872002400287DD052
:105510000120887246484749602222F03BFD75E031
:10552000012909D141494A7C287848740024002A7D
:105530006CD1012863D069E0182467E018240129A0
:1055400064D13A48C27B2978022A2FD110295DD133
:1055500010212EE002240E2858D8022956D129887D
:105560001CF088F8044651E0002401294ED1287827
:1055700001284BD82D49C87223F01CFB46E01824A3
:10558000012943D12878012840D8284908733CE0F4
:10559000182401293AD12878012837D8234901282D
:1055A00030D14A79002A2DD102242FE0CA1F0A2ABD
:1055B0002CD2017429E01D4D287B002804D124F051
:1055C00023F8002802D0287B012822D103A80078E4
:1055D00008F000FC0FE0012918D1002D16D0287822
:1055E000B07212E00FF03CF80446502020F0B6F9FB
:1055F0000CE020F033FE0446502020F0AFF919F003
:1056000047FB03E0887123F0DDFA0024204604B054
:1056100070BD686A03A9097801224254F6E70024A4
:10562000204623F061FEF1E700FCFFFF78760020C2
:10563000DC76002004CA0200F0B58BB00C4623F0E3
:1056400059FB05462046294624F0E7FB002D01D0F2
:105650000020A860012660003CD5B507681C24F036
:1056600063F902D124F0F5FBB4432846403024F01E
:105670005BF903D124F0E9FB402084432846203025
:1056800024F052F903D124F0E2FB20208443281DAA
:1056900024F04AF903D124F0E0FB04208443A81C41
:1056A00024F042F903D124F0D9FB02208443284698
:1056B000083024F039F903D124F0CCFB08208443CE
:1056C0002846103024F030F903D124F0C1FB10201B
:1056D0008443AC43E00234D53705B81C24F024F9E8
:1056E00003D123F0CEFE02208443781C24F01CF961
:1056F00002D123F00EF9B4433846083024F014F9EF
:1057000003D123F070FF08208443381D24F00CF9E6
:1057100016D1032024F0A1FA00280FD002468830C9
:105720001546943501680A91526AC38C018DC06B8D
:105730000091019028460A9922F043F904208443FD
:10574000BC43204624F07CF8044623F0D3FA0546F7
:10575000200403D524F0A0F8F0038443600328D587
:10576000002D10D02888402819D0310288420DD051
:1057700080281CD177480078082801D024F026FB27
:1057800024F055FB13E024F021FB10E07148007871
:105790000E2801D024F01AFB24F053FB07E06D48DB
:1057A0000078072801D024F011FB24F055F8B0044C
:1057B0008443600103D524F067F8B00684432007D2
:1057C00003D524F05BFB08208443E00612D5624831
:1057D0000890FF2000210091019102910391049112
:1057E00005910691079002200A460B4608F080FFBB
:1057F00010208443A00603D524F042FB20208443DC
:10580000200303D524F00EFBF0048443A00303D54A
:1058100024F02DFB70048443200103D523F08CFF7A
:10582000F0068443E00003D524F0FAFA30078443FD
:10583000E0030AD524F00CF8012802D123F0B4FFCC
:1058400001E023F0EDFF30048443A00003D524F0F1
:10585000E8FA70078443600703D524F007FB0420AF
:105860008443200603D524F007FB80208443A0074F
:1058700003D524F0FAFA0220844320020CD53548DF
:105880000078052804D0112804D123F0ADFF01E0F1
:1058900024F0D8FAF0058443204624F0EAFA0446BE
:1058A000800416D523F060FF2C4823F04BF92C49D7
:1058B00008601BF05FFF002804D02A48026803201C
:1058C0000146904728481DF0D9F908F023F87003E5
:1058D0008443600203D505F0C9FCB0058443A005EC
:1058E00003D522F039FE70028443204D600402D4B7
:1058F000681C044005E0812019F04EFD1120800253
:105900008443E00705D01A480068002800D080478B
:105910002C40E0041BD5174D28680D3022F016FCF2
:10592000002804D12868C11D0D3018F01BFB23F09E
:105930009BFF1148007811494A68350329461BF03E
:10594000FBFB002802D08E2019F026FDAC43204638
:105950000BB0F0BD246F0020FFFF0000FFF9000036
:10596000E06E0020DC7D0020346E0020FEFBFFFF97
:10597000E86E0020DC6E0020046F0020146E002012
:10598000F0B589B0044680202158C8080D4603911F
:10599000E26F511C4143E06DC9B28F00C019616FC5
:1059A000636C06AE0BC6A807060F05A88159206ECA
:1059B000A36F0092BB4D0A46A847606E23F088FD96
:1059C00005A88059A16CA36FE26F0092B64D0A46FC
:1059D000A847E06E216FA26C636E06920791089350
:1059E00005A98959E26DD2190497236EE56C0692D8
:1059F0000793089505AA23F07FFDAA4DA847606E7E
:105A0000E16EE26C06AB07C305A88059E26F521C39
:105A100023F0DCF9E06E216F06900791089005A84D
:105A20008059216E23F038FD9F4DA847206FA16E4D
:105A300006900790089105A88059A16DC919226E9A
:105A4000636E06AD0EC505A98959A26CE36C656F3E
:105A500006930795089205AA23F04EFD914DA8479D
:105A6000606F216E06900791089005A88059A16E7D
:105A700023F012FD8C4DA847234660330ECB0693CE
:105A80000791089205A88759E56C606F0691079504
:105A9000089005A9895906920790089305A882598C
:105AA000A36FE06F009038467E4DA847226E606E6F
:105AB000616F06AB07C305A88559E16EA36FE06F60
:105AC00000902846784FB847216E226DA36FE06F93
:105AD00000902846B847E06C616E226E06AB07C3A3
